:100000000C9444040C9456040C9456040C94DF0F86
:100010000C9464340C9456040C9456040C945604BA
:100020000C9456040C9456040C9456040C94F72A21
:100030000C9456040C9456040C9456040C945604D8
:100040000C94102D0C9456040C9480260C9442268B
:100050000C9456040C9456040C9456040C945604B8
:100060000C9456040C9456047307570F570F7D07D2
:100070008A079707A407570FA807570FB607570F08
:10008000C007CA07FB07570F570F570FD407E107E1
:10009000EE071B0E2C0E4B0E2C0E4F0E620E550E45
:1000A0005B0E770E7D0E8C0EA30EC70ED10EDD0EED
:1000B000E70E3121342139213C213F2142214521C4
:1000C00048214B214E215121602154216021602182
:1000D00060216021602160215A2157215D21A721E3
:1000E000AA21AD21B021B321B621B921BC210B2910
:1000F0001129142917291C2924292E29AC29AC29B6
:10010000AC293629392942294B29AC29AC29AC29FB
:10011000AC29AC29AC2953295D2969297129742995
:100120007D2986298C29AC29AC2995299E29084A44
:10013000D73B3BCE016E84BCBFFDC12F3D6C7431FB
:100140009ABD56833DDA3D00C77F11BED9E4BB4C52
:100150003E916BAAAABE000000803F05A84CCDB21C
:10016000D44EB93836A9020C50B9918688083CA6FD
:10017000AAAA2ABE000000803F003E0D0A007C00B3
:100180007C002C50696E3A002C52583A002C427573
:10019000663A002C002C57506F733A002C002C4DFF
:1001A000506F733A003C446F6F72003C4368656364
:1001B0006B003C416C61726D003C486F6D65003CAA
:1001C000486F6C64003C52756E003C49646C65007D
:1001D0005D0D0A005B312E30632E32303135313106
:1001E00030393A000D0A003D00244E005D0D0A0032
:1001F000205300204600205400204D3700204D3869
:1002000000204D3900204D3500204D3400204D3365
:1002100000204D3200204D3100204D300020473964
:100220003400204739330020473931002047393026
:10023000002047323000204732310020473139005A
:1002400020473138002047313700204700473338F6
:100250002E0047383000473300473200473100470F
:1002600030005B005D0D0A005B544C4F3A005D0DA1
:100270000A002C005B4739323A005D0D0A002C0061
:100280003A003330003238005B47005D0D0A003A17
:10029000002C005B5052423A00290D0A00206D618B
:1002A000782074726176656C2C206D6D002061631E
:1002B00063656C2C206D6D2F7365635E3200206D5D
:1002C000617820726174652C206D6D2F6D696E00F0
:1002D0002C20737465702F6D6D007A0079007800A2
:1002E0002028003D002400202872706D206D696E6A
:1002F000290D0A00202872706D206D6178290D0A81
:100300002433313D002028686F6D696E6720707559
:100310006C6C2D6F66662C206D6D290D0A243330B0
:100320003D002028686F6D696E67206465626F7597
:100330006E63652C206D736563290D0A2432373D89
:10034000002028686F6D696E67207365656B2C20CF
:100350006D6D2F6D696E290D0A2432363D002028FF
:10036000686F6D696E6720666565642C206D6D2F02
:100370006D696E290D0A2432353D00290D0A24329B
:10038000343D002028686F6D696E672064697220B3
:10039000696E76657274206D61736B3A002028680F
:1003A0006F6D696E67206379636C652C20626F6F77
:1003B0006C290D0A2432333D0020286861726420C4
:1003C0006C696D6974732C20626F6F6C290D0A243F
:1003D00032323D002028736F6674206C696D697439
:1003E000732C20626F6F6C290D0A2432313D00207E
:1003F000287265706F727420696E636865732C2053
:10040000626F6F6C290D0A2432303D002028617222
:100410006320746F6C6572616E63652C206D6D294D
:100420000D0A2431333D0020286A756E6374696FAC
:100430006E20646576696174696F6E2C206D6D291C
:100440000D0A2431323D00290D0A2431313D0020AE
:1004500028737461747573207265706F7274206D87
:1004600061736B3A00202870726F62652070696E4C
:1004700020696E766572742C20626F6F6C290D0A8C
:100480002431303D0020286C696D69742070696EDC
:100490007320696E766572742C20626F6F6C290D03
:1004A0000A24363D0020287374657020656E6162F1
:1004B0006C6520696E766572742C20626F6F6C2992
:1004C0000D0A24353D00290D0A24343D00202864FE
:1004D000697220706F727420696E76657274206D17
:1004E00061736B3A00290D0A24333D002028737490
:1004F000657020706F727420696E76657274206DFD
:1005000061736B3A002028737465702069646C65B0
:100510002064656C61792C206D736563290D0A2454
:10052000323D002028737465702070756C73652CE3
:100530002075736563290D0A24313D0024303D0088
:100540002424202876696577204772626C207365C1
:100550007474696E6773290D0A24232028766965EF
:1005600077202320706172616D6574657273290D47
:100570000A24472028766965772070617273657256
:10058000207374617465290D0A24492028766965F1
:1005900077206275696C6420696E666F290D0A2484
:1005A0004E202876696577207374617274757020A7
:1005B000626C6F636B73290D0A24783D76616C75EC
:1005C00065202873617665204772626C20736574BC
:1005D00074696E67290D0A244E783D6C696E65203A
:1005E0002873617665207374617274757020626C13
:1005F0006F636B290D0A24432028636865636B20B1
:1006000067636F6465206D6F6465290D0A24582047
:10061000286B696C6C20616C61726D206C6F636B10
:10062000290D0A2448202872756E20686F6D696E46
:1006300067206379636C65290D0A7E2028637963DE
:100640006C65207374617274290D0A212028666517
:10065000656420686F6C64290D0A3F2028637572F9
:1006600072656E7420737461747573290D0A6374F6
:10067000726C2D7820287265736574204772626CE5
:10068000290D0A000D0A4772626C20312E3063205A
:100690005B27242720666F722068656C705D0D0AE9
:1006A000005D0D0A00526573746F72696E67206495
:1006B000656661756C74730050676D20456E6400EB
:1006C000436865636B20446F6F72004469736162B5
:1006D0006C656400456E61626C65640043617574AD
:1006E000696F6E3A20556E6C6F636B6564002724EA
:1006F00048277C2724582720746F20756E6C6F6301
:100700006B00526573657420746F20636F6E74693B
:100710006E7565005B000D0A00486F6D696E67209D
:100720006661696C0050726F6265206661696C0079
:1007300041626F727420647572696E6720637963B9
:100740006C6500536F6674206C696D697400486154
:100750007264206C696D697400414C41524D3A20BD
:10076000000D0A00496E76616C69642067636F64EE
:10077000652049443A00556E646566696E6564207B
:1007800066656564207261746500556E737570707E
:100790006F7274656420636F6D6D616E64004D6F80
:1007A00064616C2067726F75702076696F6C61741C
:1007B000696F6E00436865636B20446F6F72004C15
:1007C000696E65206F766572666C6F7700486F6D35
:1007D000696E67206E6F7420656E61626C6564007F
:1007E000416C61726D206C6F636B004E6F74206999
:1007F000646C6500454550524F4D20726561642020
:100800006661696C2E205573696E67206465666148
:10081000756C74730056616C7565203C20332075CF
:100820007365630053657474696E672064697361EE
:10083000626C65640056616C7565203C203000492F
:100840006E76616C69642073746174656D656E7435
:1008500000426164206E756D62657220666F726D14
:10086000617400457870656374656420636F6D6DB5
:10087000616E64206C6574746572006572726F726B
:100880003A20006F6B0D0A0011241FBECFEFD8E095
:10089000DEBFCDBF26E0A0E0B1E001C01D92A33EC7
:1008A000B207E1F70E944A120C94D03A0C9400006F
:1008B0004398449808953B9A3C9A0C94580490911C
:1008C000AC0591110AC0823011F4439A0895813029
:1008D00011F4449A08950C9458040895CF93DF932B
:1008E0001F92CDB7DEB79091AD05923049F0898364
:1008F0000E940A2189810F90DF91CF910C945F04AF
:100900000F90DF91CF910895F999FECF92BD81BDEF
:1009100081E08FBB80B50895F894F999FECF92BD20
:1009200081BD81E08FBB40B54627842F992787FD85
:100930009095262F30E082239323892B39F06F3F47
:1009400019F060BD84E006C084E104C0442321F0B6
:1009500060BD84E28FBBF99A789408959F92AF921C
:10096000BF92CF92DF92EF92FF920F931F93CF939C
:10097000DF938C017A016B01C40ED51EEB01912C23
:100980005C01A61AB70ACE018A0D9B1DCC15DD05A8
:1009900091F0911009C0692D772767FD7095272F79
:1009A000221F2227221F01C021E06991922E960E5C
:1009B0000E948C04E8CF692DC8018E0D9F1DDF9128
:1009C000CF911F910F91FF90EF90DF90CF90BF904C
:1009D000AF909F900C948C049F92AF92BF92CF9255
:1009E000DF92EF92FF920F931F93CF93DF938B01D0
:1009F0007A016C01C40ED51EEC01912C5B01A81A82
:100A0000B90AC5018C0F9D1FCC15DD0591F00E9420
:100A10008404911009C0292D332727FD3095232FF9
:100A2000221F2227221F01C021E0922E980E8993B7
:100A3000E8CFC8018E0D9F1D0E94840421E030E0A4
:100A4000981611F020E030E0C901DF91CF911F919D
:100A50000F91FF90EF90DF90CF90BF90AF909F905D
:100A600008958FE3E4E3F5E0DF011D928A95E9F74D
:100A700067E575E080E00E946B28811103C087E084
:100A80000C941B21089562EB75E08BE495E00C94C7
:100A900063362F923F924F925F926F927F928F9226
:100AA0009F92AF92BF92CF92DF92EF92FF920F93FD
:100AB0001F93CF93DF93CDB7DEB7AB970FB6F89404
:100AC000DEBF0FBECDBF98A38F8F89E3E3E7F5E0CC
:100AD000DF011D928A95E9F78AE0E4E3F5E0A4E7F7
:100AE000B5E001900D928A95E1F71D8E212C312CF5
:100AF000A12CB12C19A2512C1E8E66246394712C4A
:100B000008E0402E9924939485E0882E8D8DEF8DFA
:100B1000F8A1E80FF11D0081002309F48FC29FEBBB
:100B2000900F9A3110F00C94490F8F5F8D8FAE01AA
:100B3000475E5F4FBE01635E7F4F8F8D98A10E941D
:100B4000F716882311F40C944B0FC98CDA8CEB8CBC
:100B5000FC8CC701B6010E94633A0E94CB37162F66
:100B600070E080E090E00E94F9379B01AC01C70182
:100B7000B6010E947D3620E030E048EC52E40E944D
:100B800095390E94F8390E94CB37073421F00D3493
:100B900009F450C197C1183209F432C1E8F4143194
:100BA00060F4113108F0D7C0143009F45AC008F4C9
:100BB0008EC01A30D9F10C94570F1C31B9F128F4BA
:100BC000163108F4F7C00C94570F1E3179F1163224
:100BD00009F47DC00C94570F1D3309F40BC1A8F420
:100BE000153309F461C040F41B3209F4ECC0113331
:100BF00009F4E9C00C94570F1C3310F00C94570FF4
:100C0000165310937A0589E000C11C3540F41A355B
:100C100008F0B0C0103509F49BC00C94570F1C3578
:100C200029F01F3508F4BDC00C94570F61157105EC
:100C300031F4BE8DB1110C944D0FE1E0EE8F1C31FB
:100C400099F038F4143069F01A3009F0DBC082E012
:100C50002CC0153349F11C3559F11E3109F0D2C0B1
:100C600013C090927305CEC06115710549F06A30CA
:100C7000710511F00C94570F24E02093730509C0FF
:100C8000F3E0F093730505C06115710521F48092BE
:100C9000730580E0BFC06A30710511F00C94570FE6
:100CA00036E030937305F5CF87E080937305AAC0D3
:100CB0006115710549F06A30710511F00C94570FF8
:100CC00099E090937305E5CF40927305E2CFAE8D26
:100CD000A1110C944D0FB2E0BE8F123089F028F4B0
:100CE000112359F0113081F08FC0163281F0103588
:100CF00079F1133009F088C007C01092740584C0E0
:100D0000EE8DE093740580C0109374057DC06E3144
:100D10007105B1F048F46431710511F00C94570F6E
:100D2000F4E0F093740512C06832710561F062332B
:100D3000710511F00C94570F37E03093740506C01D
:100D40008092740503C026E02093740581E062C0A0
:100D50004092740559C0123129F0133139F01092C4
:100D6000780502C09092780582E04FC082E08093BF
:100D700078054BC06115710549F41A3519F41092C4
:100D8000770502C09092770583E044C06A30710510
:100D900011F00C94570F1A3511F40C94570F84E08E
:100DA00039C01D3519F49092750502C01092750571
:100DB00085E02BC0143119F49092760502C0109290
:100DC000760586E022C08E8D81110C944D0F113373
:100DD00031F41092790588E093E09E8F1BC06A3051
:100DE000710511F00C94570F9092790588E0A3E0FB
:100DF000AE8F10C0672B11F00C94570F8AE00AC019
:100E000087E003C080E001C081E0672B19F087E133
:100E10000C946A0FF30102C0EE0FFF1F8A95E2F7F0
:100E2000CF019F012A213B21232B09F448C085E1F2
:100E30000C946A0F672B59F7163018F4133058F0DA
:100E400017C0173010F40C94570F1A3000F11E31F0
:100E500059F00C94570F123039F01E3129F011114E
:100E600025C090927B0522C082E080937B051EC046
:100E7000143029F0153039F090927D0506C082E0DB
:100E800080937D0502C010927D058CE010C0183063
:100E900029F0193039F090927C0506C082E08093E9
:100EA0007C0502C010927C058DE001C08BE09301AF
:100EB00002C0220F331F8A95E2F7C901B3CFA82AD7
:100EC000B92A24CE802F992787FD9095A92FB92F75
:100ED000FC01E654F109E531F10508F0E8C7EC5CE6
:100EE000FF4F0C94B03AC0927E05D0927F05E092FD
:100EF0008005F092810580E07FC0C0928205D0928B
:100F00008305E0928405F092850539A1316039A30B
:100F100081E072C0C0928605D0928705E092880574
:100F2000F092890589A1826089A382E065C0C092A0
:100F30008A05D0928B05E0928C05F0928D0599A1DF
:100F4000946099A383E058C010938E0584E054C048
:100F5000C701B6010E94C63760938F057093900554
:100F6000809391059093920585E046C0C0929305C9
:100F7000D0929405E0929505F092960586E03CC0EB
:100F8000C0929705D0929805E0929905F0929A0543
:100F900087E032C0C0929B05D0929C05E0929D05EF
:100FA000F0929E0588E028C0C092A005D092A105CD
:100FB000E092A205F092A305A52DA1605A2E8AE029
:100FC0001BC0C092A405D092A505E092A605F092A0
:100FD000A705B52DB2605B2E8BE00EC0C092A805B0
:100FE000D092A905E092AA05F092AB05E52DE46048
:100FF0005E2E8CE001C089E08301082E02C0000F44
:10100000111F0A94E2F7980122213321232B09F0C2
:1010100046C721E633E002C0359527958A95E2F769
:1010200020FF09C020E030E0A901C701B6010E94FD
:10103000573787FD36C7202A312A68CD552029F039
:101040003E8D311102C082E08E8F25FE0EC0809150
:101050008F0590919005A0919105B09192058038EF
:101060009649A849B1050CF01EC7809175058130DD
:1010700031F4FE8DF230A1F520FE1FC731C0809102
:10108000350581112DC020FE1BC080917605813071
:1010900039F523E333E34BEC51E460917E05709125
:1010A0007F0580918005909181050E94953960931C
:1010B0007E0570937F05809380059093810510C015
:1010C0008091420590914305A0914405B09145055A
:1010D00080937E0590937F05A0938005B093810552
:1010E00030FC10C080913E0590913F05A0914005D5
:1010F000B091410580939B0590939C05A0939D051D
:10110000B0939E0580917305813031F426FC02C0B6
:101110008CE1E0C6E89426F880917805882341F0B8
:10112000813061F019A682E088A791E09FA30BC0EF
:1011300022E029A731E038A71FA205C0A1E0A9A796
:1011400018A6B2E0BFA380917605813021F0EE8D24
:10115000E33091F52AC0B0EAEB2EB5E0FB2E00E0BB
:1011600010E0C52CD12CC601002E02C095958795A4
:101170000A94E2F780FF10C023E333E34BEC51E421
:10118000D7016D917D918D919C910E949539F701C8
:1011900060837183828393830F5F1F4FF4E0EF0EB0
:1011A000F11C03301105F9F6D2CF80917905813019
:1011B00019F424E0521279C68CE0E7E5F5E0DE018F
:1011C0001D9601900D928A95E1F7B1FC09C030910E
:1011D00073053F8F3230B9F0383009F4B0C015C113
:1011E00080917A05873010F08DE174C690913A05B0
:1011F000981769F3BE01635F7F4F0E946B288823B5
:1012000009F465C6E4CF511002C08AE163C6C1018A
:1012100080759927892B09F47BCF60919305709194
:10122000940580919505909196050E94633A0E94DD
:10123000CB376730C8F680918E05843129F0823033
:1012400009F035C627FC33C68FEA2822662319F039
:1012500061506F8F03C090917A059F8FBE016F5FC1
:101260007F4F8F8D0E946B28882309F430C64090F1
:101270008E0560906F05709070058090710590905C
:101280007205DE0111967D01F0EACF2EF5E0DF2E2A
:10129000ABE4AA2EA5E0BA2E00E010E0E52DF0E0C8
:1012A000FEA3EDA38DA19EA1002E02C0959587956A
:1012B0000A94E2F780FF33C0F4E14F1226C0D50153
:1012C00058962D913D914D915C915B976D917D91DB
:1012D0008D919C910E947D36F60120813181428161
:1012E00053810E947D36D7016D937D938D939C939E
:1012F00013970230A1F4A40193010E947D36F701F7
:1013000060837183828393830AC0F6018081918117
:10131000A281B381F70180839183A283B3830F5F9E
:101320001F4FF4E0EF0EF11C24E0C20ED11C34E09C
:10133000A30EB11C0330110509F0B4CF0FC1552025
:1013400009F463CF60906F0570907005809071050F
:101350009090720500EA15E0EBE4CE2EE5E0DE2E7B
:101360005E018DE0A80EB11CE12CF12CA52DB0E0A2
:10137000B8A3AF8F8F8D98A10E2C02C0959587953D
:101380000A94E2F780FF26C0F50120813181428175
:101390005381D6016D917D918D919C910E947D36F6
:1013A000F80120813181428153810E947D36D8012C
:1013B0006D937D938D939C931397B2E0EB1214C0C1
:1013C000A40193010E947D36F801608371838283BA
:1013D00093830AC0F601808D918DA28DB38DF801A3
:1013E00080839183A283B383FFEFEF1AFF0A0C5F20
:1013F0001F4F24E0C20ED11C34E0A30EB11C83E0C9
:10140000E816F10409F0B6CFA8C09E8D933059F4C8
:10141000AF8DA53009F48FC0A73009F499C0A3306F
:1014200009F09BC080C0552099F3409077058090CB
:101430006F0590907005A0907105B09072057BE4E7
:10144000C72E75E0D72E00EA15E03E01BDE06B0E19
:10145000711CE12CF12CE52DF0E0FEA3EDA38DA194
:101460009EA10E2C02C0959587950A94E2F780FD07
:101470000BC0F60180819181A281B381F801808344
:101480009183A283B3833EC0FF8DF730D9F1411021
:1014900028C0D60158962D913D914D915C915B9756
:1014A000F30160817181828193810E947E36D8012F
:1014B0002D913D914D915C910E947E36F8016083A3
:1014C000718382839383F2E0EF121CC0A501940123
:1014D0000E947E36D8016D937D938D939C931397D4
:1014E00011C0F6012081318142815381D8016D9173
:1014F0007D918D919C910E947E36F801608371836D
:1015000082839383FFEFEF1AFF0A24E0C20ED11CFF
:101510000C5F1F4F34E0630E711C83E0E816F1048A
:1015200009F09DCF75CF511001C01E8EBE016F5FB7
:101530007F4F86E007C0511001C01E8EBE016F5F55
:101540007F4F87E00E946B28882309F4C0C405C040
:1015500080917405823008F0ACC41F8E1091740520
:10156000183041F4552009F4B3C19E8D913009F033
:10157000A2C48BC2AE8DA23009F0AAC11123D9F04A
:1015800020E030E0A90160917E0570917F05809197
:101590008005909181050E945737882309F48DC4F6
:1015A000143028F4123058F4113029F06EC218307B
:1015B00008F44DC16AC2511068C21E8E8CC15520FC
:1015C00009F423CEFFA1EF2FF0E0FEA3EDA338A591
:1015D000232F30E03BA72AA781E090E03C0108A43C
:1015E00002C0660C771C0A94E2F70FA002C0880FB5
:1015F000991F0A94E2F7682A792A852D90E08621BE
:101600009721892B09F45BC4CF01880F991F880F9C
:10161000991FFC01ED58FA4FDC01AC5CBA4F5796AC
:101620002D913D914D915C915A9765A576A587A521
:1016300090A90E947D366B017C018AA59BA5880F2D
:10164000991F880F991FFC01ED58FA4FDC01AC5C23
:10165000BA4F57962D913D914D915C915A9765A542
:1016600076A587A590A90E947D364B015C0127FED7
:1016700040C0E89427F82091A0053091A105409141
:10168000A2055091A30560914B0570914C05809186
:101690004D0590914E050E945737811120C1209130
:1016A000A4053091A5054091A6055091A70560912C
:1016B0004F057091500580915105909152050E94FF
:1016C000573781110CC12091A8053091A90540918F
:1016D000AA055091AB056091530570915405809116
:1016E0005505909156050E9457378111F8C081E247
:1016F000F1C3F9A14F2E512C64207520672809F4FD
:10170000E0C321EF222280917605813009F45AC08E
:101710000AA51BA5000F111F000F111F09581A4F12
:10172000D8011B962D913D914D915C911E97C5015D
:10173000B4010E947D362B013C01ADA0BEA0AA0CD5
:10174000BB1CAA0CBB1CF501E958FA4F5F012385AD
:10175000348545855685C701B6010E947D36A301B3
:1017600092010E94E5176B017C01D8011B962D9117
:101770003D914D915C911E97F5016385748585853A
:1017800096850E94E5174B015C0160939705709365
:1017900098058093990590939A059B01AC01C70128
:1017A000B6010E947D366B017C01E894F7F82AE0CF
:1017B00037ED43EA5BE3C701B6010E945A391816B8
:1017C0004CF163C182E8682E85E0782E00E010E0DD
:1017D000C201002E02C0959587950A94E2F780FF1A
:1017E00010C023E333E34BEC51E4D3016D917D91C1
:1017F0008D919C910E949539F3016083718382835E
:1018000093830F5F1F4FF4E06F0E711C03301105BF
:10181000F9F67ECF20E030E040E05FE3C701B6019B
:101820000E945A3918160CF462CF2FE632E143E8D1
:101830005AE3C501B4010E9495399B01AC01C7016F
:10184000B6010E945A3918160CF451CF1EC155200A
:1018500009F4DBCC2091A0053091A1054091A205AF
:101860005091A30560914B0570914C0580914D05F9
:1018700090914E050E945737811107C12091A40510
:101880003091A5054091A6055091A70560914F059F
:101890007091500580915105909152050E945737E3
:1018A0008111F3C02091A8053091A9054091AA05A6
:1018B0005091AB0560915305709154058091550589
:1018C000909156050E945737882309F410CFDDC048
:1018D0002E8D2111DAC0C1018E7D9C7FD9C08091EF
:1018E00076058130B1F423E333E34BEC51E46091AE
:1018F0009705709198058091990590919A050E949D
:101900009539609397057093980580939905909306
:101910009A054090970550909805609099057090B1
:101920009A0520E030E040E850E4C301B2010E9493
:101930009539A30192010E9495392B013C01A70121
:101940009601C701B6010E9495399B01AC01C30104
:10195000B2010E947D362B013C01A5019401C50115
:10196000B4010E9495399B01AC01C301B2010E94F0
:101970007D362B013C0120E030E0A9010E94573761
:1019800087FDA7C2C301B2010E94223A2B013C018C
:10199000A5019401C701B6010E94E5179B01AC01A6
:1019A000C301B20190580E945E372B013C01809127
:1019B0007405833021F477FA709477F870948091ED
:1019C000970590919805A0919905B0919A0589A3E2
:1019D0009AA3ABA3BCA320E030E0A901BC01CD01D8
:1019E0000E94573787FF11C077FA709477F8709488
:1019F00089A19AA1ABA1BCA1B058809397059093FF
:101A00009805A0939905B0939A050DA11EA1000F0A
:101A1000111F000F111F09581A4FA3019201C50190
:101A2000B4010E9495399B01AC01C701B6010E9427
:101A30007D3620E030E040E05FE30E949539D80138
:101A40001B966D937D938D939C931E970AA51BA562
:101A5000000F111F000F111F09581A4FA301920107
:101A6000C701B6010E9495399B01AC01C501B401C3
:101A70000E947E3620E030E040E05FE30E9495392E
:101A8000F8016387748785879687C1018E7D907E74
:101A9000892B09F018C280918F0590919005A09133
:101AA0009105B09192058093470590934805A093C6
:101AB0004905B0934A05809175058093350580915D
:101AC0007E0590917F05A0918005B091810580935E
:101AD000420590934305A0934405B0934505C090FB
:101AE0009B05D0909C05E0909D05F0909E05A70178
:101AF000960160913E0570913F058091400590915F
:101B000041050E9457378823C1F080913D05882305
:101B100021F0B701A6010E94882A80919B0590912F
:101B20009C05A0919D05B0919E0580933E059093E4
:101B30003F05A0934005B093410580919F05809398
:101B4000460580917D0590913D05981771F0409173
:101B50003E0550913F0560914005709141050E94FE
:101B6000882A80917D0580933D0580917C05909128
:101B70003C05981731F00E946E0480917C0580939B
:101B80003C0580917305813051F46091930570910B
:101B9000940580919505909196050E94CA158091B3
:101BA00078058093380580917605809336053E8DC3
:101BB0003330F9F48091790580933905813089F4C7
:101BC0008091A8059091A905A091AA05B091AB05B7
:101BD00080936F0590937005A0937105B093720583
:101BE00008C010926F051092700510927105109246
:101BF000720580917A0590913A05981759F0809373
:101C00003A058CE0FE013D96A7E5B5E001900D9206
:101C10008A95E1F780917705809337058091730568
:101C200090E0FC013297E830F10508F04BC0E75B2B
:101C3000FF4F0C94B03ABE016F5F7F4F8F8D0E94B3
:101C4000F32680913A059F8D89133CC08CE0FE01FC
:101C50003196A7E5B5E01AC0AE8DAA2349F020E081
:101C600040E050E060E87FEB80EA95E00E9483125C
:101C700020E040E050E060E87FEBCE0101960E945A
:101C800083128CE0FE013196ABE4B5E001900D9239
:101C90008A95E1F717C06BE475E086E003C06BE45A
:101CA00075E087E00E94F3260DC08CE0E0EAF5E0E5
:101CB000A3E6B5E0EBCF8CE0E3E6F5E0DF011D92B3
:101CC0008A95E9F78091740580933405883009F48A
:101CD00098C0BE8DB23009F094C090E08830910574
:101CE00008F086C0FC01EF5AFF4F0C94B03A20E098
:101CF00040E050E060E87FEB0AC04091420550911F
:101D0000430560914405709145052091350580EAB1
:101D100095E00E9483126CC0C0904205D0904305AC
:101D2000E0904405F09045050091970510919805C5
:101D30002091990530919A0581E08F93E9A5EF9361
:101D4000F8A5FF9315C0C0904205D0904305E090E0
:101D50004405F09045050091970510919805209154
:101D6000990530919A051F9289A58F9398A59F9305
:101D70008FA0A090350542E855E060EA75E08BE45D
:101D800095E00E94CB120F900F900F9031C04091C0
:101D90004205509143056091440570914505E12C41
:101DA0000AC04091420550914305609144057091ED
:101DB0004505EE24E39400E015C0409142055091A2
:101DC00043056091440570914505E12C0AC040919E
:101DD0004205509143056091440570914505EE24FC
:101DE000E39401E02091350580EA95E00E94011618
:101DF0008CE0E0EAF5E0ABE4B5E001900D928A9565
:101E0000E1F780917B0580933B05882309F45DC051
:101E10000E940A2190913B058091AD05913069F4B3
:101E20008230A1F19FB7F8948091B00588608093CB
:101E3000B0059FBF0E94531F29C091E090933405C5
:101E400010923805109237051092350510923A0518
:101E500010923D0510923C058230A9F0BE01635FEF
:101E60007F4F80E00E946B28882389F18CE0FE017F
:101E70003D96A7E5B5E001900D928A95E1F70E94A5
:101E8000E3290E94580487E00E94962110923B05A6
:101E90001CC081E01FC082E01DC088E11BC089E139
:101EA00019C084E017C08BE115C085E213C084E13E
:101EB00011C08EE10FC08FE10DC086E10BC080E242
:101EC00009C083E207C084E205C080E003C087E068
:101ED00001C082E2AB960FB6F894DEBF0FBECDBF55
:101EE000DF91CF911F910F91FF90EF90DF90CF90F6
:101EF000BF90AF909F908F907F906F905F904F902A
:101F00003F902F900895EBE6F0E08081897E8083FA
:101F1000E8E6F0E080818E7F8083089584B1897E39
:101F200084B985B1866185B98091D30683FF0BC0E2
:101F300080916B00866180936B0080916800816066
:101F40008093680008950C94830FCF92DF92FF92E4
:101F50000F931F93CF93DF931F92CDB7DEB793B14B
:101F600096718091D30686FD02C086E19827992359
:101F7000D9F0C12CD12CF12C01E010E08C2D9983EB
:101F80000E94D9299981892339F098010C2C01C02C
:101F9000220F0A94EAF7F22A8FEFC81AD80AE3E070
:101FA000CE16D10459F701C0F12C8F2D0F90DF917F
:101FB000CF911F910F91FF90DF90CF9008951F92C6
:101FC0000F920FB60F9211242F933F934F935F936D
:101FD0006F937F938F939F93AF93BF93EF93FF93F1
:101FE0008091AD05813071F08091B10581110AC0F9
:101FF0000E94CB169FB7F8948091B10583608093BF
:10200000B1059FBFFF91EF91BF91AF919F918F91CC
:102010007F916F915F914F913F912F910F900FBEE4
:102020000F901F9018952F923F924F925F926F9250
:102030007F928F929F92AF92BF92CF92DF92EF9258
:10204000FF920F931F93CF93DF93CDB7DEB76797C0
:102050000FB6F894DEBF0FBECDBF482E8091AC0501
:102060008111A2C192EBA92E96E0B92E9E01235FA9
:102070003F4F190100E010E0C12CD12C7601642CF7
:10208000712C802F0E94C529D1018D931D01C301A0
:10209000002E02C0959587950A94E2F780FF1AC03A
:1020A00020E030E040EC5FEBF501608171818281DE
:1020B00093810E949539688B572E4C01262F372F1C
:1020C000AC01C701B6010E945A3918161CF0C88825
:1020D000D52C74010F5F1F4FF4E0AF0EB11C03301D
:1020E000110579F68090D9069090DA06A090DB066B
:1020F000B090DC0624E0288B5524539462EB75E005
:10210000CE0101960E9463362090D406312CFE0148
:10211000319682EB95E09F8B8E8B80E090E000E023
:1021200010E0B701A60170589301082E02C0359542
:1021300027950A94E2F720FF28C00F5FAE89BF8978
:102140001D921D921D921C9213979101082E02C0A0
:10215000359527950A94E2F720FF03C0552019F022
:1021600007C0552029F0C082D182E282F38204C0E8
:1021700040835183628373832DE030E02C0F3D1F39
:10218000280F391FD9012C91122B019634962E89D4
:102190003F892C5F3F4F3F8B2E8B8330910521F67B
:1021A000602F70E080E090E00E94F7370E94223AB2
:1021B0009B01AC01C501B4010E949539AB01BC0182
:1021C0001093BE054A8B5B8B6C8B7D8B0E94851CAC
:1021D00000E020E04A895B896C897D89CE01019607
:1021E0000E9486190E94712E0E94B02A5520E9F0A3
:1021F0000E94A50FFE013D9620E030E090E0619145
:10220000462F412359F0AC01022E02C05595479547
:102210000A94E2F740FF02C0609516232F5F3F4FFC
:102220002330310561F71093BE050E94712E809115
:10223000B0058473C1F08091B005807329F00E94CD
:10224000CB160E94531FB0C05110A9C00E94A50F09
:102250008421A9F79FB7F8948091B0058B7F809374
:10226000B0059FBF04C0812F8C7109F0BFCF0E94C1
:10227000622D0E9426198091DD069091DE060E9453
:10228000DA1731E05326C9F020E030E040EA50E4AC
:102290006091DF067091E0068091E1069091E20680
:1022A0000E9495396B017C018090D5069090D606EE
:1022B000A090D706B090D80610C0C090DF06D0908E
:1022C000E006E090E106F090E2068090D90690905A
:1022D000DA06A090DB06B090DC0688898150888BF6
:1022E00081110CCF8091D406A82FB0E0B98BA88BB8
:1022F000C090DF06D090E006E090E106F090E206A4
:102300001601270157FA509457F850940EE816E03A
:1023100082EB882E85E0982EA12CB12CC3010A2CCB
:1023200002C0959587950A94E2F780FF29C08889B5
:1023300099890A2C02C0959587950A94E2F7F801CD
:1023400080FF0EC024A135A146A157A1C701B60147
:102350000E947E36D8012D913D914D915C9106C031
:102360002081318142815381C201B1010E9495399E
:102370000E946539D4016D937D938D939C9313973F
:10238000BFEFAB1ABB0AE4E08E0E911C0C5F1F4F2F
:10239000F3E0AF16B10411F60E94851C05C08091D0
:1023A000B00582FF57CF4BCF67960FB6F894DEBFCC
:1023B0000FBECDBFDF91CF911F910F91FF90EF9096
:1023C000DF90CF90BF90AF909F908F907F906F9055
:1023D0005F904F903F902F900895CF92DF92EF92B1
:1023E000FF920F931F93CF93DF938C01C2EBD6E044
:1023F000F801C190D190E190F1908F0120E030E0A0
:10240000A901C701B6010E945A39181654F0299142
:10241000399149915991C701B6010E94573787FFF9
:102420002BC08091AD058830A1F00E94CB169FB7DC
:10243000F8948091B10585608093B1059FBFDF91CD
:10244000CF911F910F91FF90EF90DF90CF900C9460
:10245000531F9FB7F8948091B00588608093B005B2
:102460009FBF0E94531F8091AC0581110AC08091CB
:10247000AD058111F6CFD9CFF6E0CE3BDF0709F0ED
:10248000B7CFDF91CF911F910F91FF90EF90DF9029
:10249000CF9008950E9410260E94B8290E948E2D88
:1024A0000E94533481E2ECEAF5E0DF011D928A9547
:1024B000E9F781E08093AC0578948091D30684FF9E
:1024C00003C081E08093AD050E94DE260E943105A5
:1024D0000E94E9290E945B040E948E0F0E94FE1D4B
:1024E0000E9426190E94622D0E94851C0E944305AD
:1024F0001092AC051092B0051092B1051092AE0585
:102500000E948C20E1CFEF92FF920F931F93CF9305
:10251000DF9300D000D0CDB7DEB77C01122F8091C1
:10252000D30685FF0BC0C70149835A836B837C8325
:102530000E94ED117C816B815A8149818091AD05AA
:102540008230F1F049835A836B837C830E94531F4E
:102550008091AC05811114C00E947E1949815A8175
:102560006B817C81882339F00E94321E49815A8117
:102570006B817C81E7CF00E0212FC7010E94861983
:102580000F900F900F900F90DF91CF911F910F91AF
:10259000FF90EF9008952F923F924F925F926F922B
:1025A0007F928F929F92AF92BF92CF92DF92EF92E3
:1025B000FF920F931F93CF93DF93CDB7DEB7E797CB
:1025C0000FB6F894DEBF0FBECDBF9C8B8B8B1B016B
:1025D0003A0109871A872B873C87AF8A2D961FAD52
:1025E0002D972E962FAD2E97298B2F963FAD2F9797
:1025F0003D8B84E0889EA00111245A834983AB89D6
:10260000BC89A40FB51FB98FA88F460D571D5B8FCE
:102610004A8FFA0180809180A280B3802D913D91F4
:102620004D915C91C501B4010E947E366C8F7D8F07
:102630008E8F9F8FF4E01F9F800111242B893C898E
:10264000200F311F39A328A3A301400F511F5BA303
:102650004AA3DA014D905D906D907C90F901208144
:10266000318142815381C301B2010E947E366CA345
:102670007DA38EA39FA3A501940150582D873E876B
:102680004F87588BD301C201B0588D839E83AF838F
:10269000B887E981FA81E20DF31D2C8D3D8D4E8DB9
:1026A0005F8D60817181828193810E947D362B01D3
:1026B0003C01F101E00FF11F2CA13DA14EA15FA152
:1026C00060817181828193810E947D364B015C0122
:1026D000A30192016D857E858F8598890E94953929
:1026E00069837A838B839C83A50194016D817E81AC
:1026F0008F8198850E9495399B01AC0169817A810F
:102700008B819C810E947E3669837A838B839C8334
:10271000A50194016D857E858F8598890E949539E4
:102720004B015C01A30192016D817E818F819885AF
:102730000E9495399B01AC01C501B4010E947D3610
:1027400029813A814B815C810E94F1362B013C0149
:102750009D89992399F02DEB37E346E055EBC301B2
:10276000B2010E945A3987FD1DC02BED3FE049ECB4
:1027700050E4C301B2010E947D3612C02DEB37E355
:1027800046E055E3C301B2010E945737181654F0D2
:102790002BED3FE049EC50E4C301B2010E947E36CC
:1027A0002B013C018090C7069090C806A090C906F6
:1027B000B090CA0629853A854B855C85CA01B90166
:1027C0000E947E36A50194010E947D369B01AC01DA
:1027D000C501B4010E9495390E94223A4B015C0167
:1027E00020E030E040E05FE3C301B2010E94953990
:1027F00029853A854B855C850E9495399F77A5018F
:1028000094010E945E370E9434380E94CB377E8B41
:102810006D8BDB01AB2B09F486C14B01A12CB12CD4
:10282000BF89BB2361F0C501B4010E94F7379B014A
:10283000AC01C701B6010E9495396B017C01C5014D
:10284000B4010E94F7374B015C019B01AC01C3014D
:10285000B2010E945E3769877A878B879C87F989E6
:10286000E4E0FE9FC00111242B893C89280F391F09
:102870003A8B298BF101E80FF91FD9012D913D9178
:102880004D915C9160817181828193810E947D363E
:10289000A50194010E945E376CAB7DAB8EAB9FAB04
:1028A00029853A854B855C85CA01B9010E94953915
:1028B0009B01AC0160E070E080E090E40E947D3616
:1028C0004B015C012BEA3AEA4AE25EE369857A85CC
:1028D0008B859C850E9495392B013C0120E030E0DE
:1028E00040E850E4C501B4010E947E369B01AC0172
:1028F000C301B2010E94953968A779A78AA79BA74F
:1029000020E030E040E05FE3C501B4010E9495396A
:102910006CA77DA78EA79FA7198201E010E0ED8923
:10292000FE890E171F0709F4FEC0B981BC3008F0FC
:102930004AC02CA53DA54EA55FA56D817E818F81E6
:1029400098850E9495394B015C0128A539A54AA5B7
:102950005BA56D857E858F8598890E949539A50137
:1029600094010E947E36B62EA72E982E892E2CA575
:102970003DA54EA55FA56D857E858F8598890E94B2
:1029800095392B013C0128A539A54AA55BA56D8188
:102990007E818F8198850E9495399B01AC01C3018E
:1029A000B2010E947D366D877E878F87988BE98183
:1029B000EF5FE9838B2D9A2DA92DB82D8D839E83F2
:1029C000AF83B8876EC0B80180E090E00E94F7370F
:1029D00029853A854B855C850E9495394B015C01C0
:1029E0000E945B376D837E838F839887C501B40116
:1029F0000E94183A4B015C01EA8DFB8D8081918128
:102A0000A281B3819C01AD01505829833A834B8345
:102A10005C83AAA1BBA18D919D910D90BC91A02D2D
:102A200088AB99ABAAABBBAB2D813E814F8158855A
:102A300069817A818B819C810E9495392B013C01AF
:102A4000A501940168A979A98AA99BA90E94953931
:102A50009B01AC01C301B2010E947E366D877E8767
:102A60008F87988BA501940169817A818B819C81E4
:102A70000E9495394B015C012D813E814F81588523
:102A800068A979A98AA99BA90E9495399B01AC01E3
:102A9000C501B4010E947D366D837E838F83988744
:102AA00019822D853E854F8558896C8D7D8D8E8D43
:102AB0009F8D0E947E36E88DF98D608371838283BD
:102AC00093832D813E814F8158856CA17DA18EA17C
:102AD0009FA10E947E36A8A1B9A16D937D938D938D
:102AE0009C9313972CA93DA94EA95FA9E989FA895E
:102AF00060817181828193810E947E36A989BA8921
:102B00006D937D938D939C9313972F89B701A601A5
:102B10008B899C890E9483128091AC05811121C010
:102B20000F5F1F4FFCCE2F89B701A601C101E796A9
:102B30000FB6F894DEBF0FBECDBFDF91CF911F91CE
:102B40000F91FF90EF90DF90CF90BF90AF909F904C
:102B50008F907F906F905F904F903F902F900C944C
:102B60008312E7960FB6F894DEBF0FBECDBFDF919C
:102B7000CF911F910F91FF90EF90DF90CF90BF907A
:102B8000AF909F908F907F906F905F904F903F900D
:102B90002F900895CF93DF9300D000D0CDB7DEB74C
:102BA0002091AD05223099F069837A838B839C83D1
:102BB0000E940A2140E069817A818B819C810F907B
:102BC0000F900F900F90DF91CF910C94A9170F9059
:102BD0000F900F900F90DF91CF9108950E94830F77
:102BE00084E00E94131083E00E9413100E94531F80
:102BF0008091AC05811104C00E9443050C948E0F96
:102C00000895CF92DF92EF920F93CF93DF9300D08E
:102C100000D01F92CDB7DEB76C018091AD05823038
:102C200009F481C02D8349835A836B837C830E947E
:102C30000A211092CC05802F0E94011E0E94131EB3
:102C40002D8149815A816B817C818823A1F09FB7B6
:102C5000F8948091B10580618093B1059FBF2D8369
:102C600049835A836B837C830E94531F7C816B81D1
:102C70005A8149812D818091AC05811154C0C601D2
:102C80000E94831281E08093BF059FB7F8948091E2
:102C9000B00582608093B0059FBF0E94531F809152
:102CA000AC05811140C08091AD058111F6CF8091B6
:102CB000BF058130A9F4EE2051F08CE0E2EBF5E0A5
:102CC000A0ECB5E001900D928A95E1F70CC09FB79A
:102CD000F8948091B10580618093B1059FBF03C0D6
:102CE00081E08093CC051092BF050E94531F809114
:102CF000AC05811118C00E94622D0E9426190E9405
:102D0000851C62EB75E0C6010E9463360F900F9040
:102D10000F900F900F90DF91CF910F91EF90DF9078
:102D2000CF900C944A230F900F900F900F900F901C
:102D3000DF91CF910F91EF90DF90CF9008950F9397
:102D40002091AC05211125C001E00E9486199091C7
:102D5000AF058823C1F0892F8D7F88608093AF05F0
:102D60000E94D42D0E94712E0E94B02A0E943B1E08
:102D70008091AC0581110DC08091AF0583FDF6CF28
:102D80000F910C94162E977F9093AF050F910C9492
:102D90003B1E0F9108958091B00584FD27C09FB719
:102DA000F8948091B00580618093B0059FBF0E9428
:102DB000E3290E9458049091AD05892F8C7021F46D
:102DC0008091AF058C7091F0943031F49FB7F894F6
:102DD0008091B105806205C09FB7F8948091B105DC
:102DE00088608093B1059FBF0C94CC2A08956F92A0
:102DF0007F928F929F92AF92BF92CF92DF92EF928B
:102E0000FF920F931F93CF93DF937C018B016A0195
:102E1000FB018081F701E80FF11D2081EF012D32C8
:102E200029F4229621816624639407C02B3211F085
:102E3000219602C022962181612CA12CB12C712CEB
:102E400060E070E0CB01FE0130ED932E920E29E0A0
:102E50002915C8F0B39428E02B1588F0A1107A94B6
:102E6000A5E0B0E09B01AC010E94B63A660F771F67
:102E7000881F991F690D711D811D911D0BC0A11027
:102E800009C0739407C02EEF921207C0A11005C0AD
:102E9000AA24A39421962081D6CFBB2009F449C04F
:102EA0000E94F7374B015C0120E030E0A9010E944D
:102EB0005737882361F18FEF78166CF42AE037EDED
:102EC00043E25CE3C501B4010E9495394B015C010A
:102ED00073947394F0CF78120BC02DEC3CEC4CEC57
:102EE0005DE3C501B4010E9495394B015C010FC03F
:102EF000772069F020E030E040E251E4C501B40100
:102F00000E9495394B015C017A9417149CF366205A
:102F100021F0B7FAB094B7F8B094F60180829182AC
:102F2000A282B382CE19DF09C150F801C08381E0CB
:102F300001C080E0DF91CF911F910F91FF90EF9042
:102F4000DF90CF90BF90AF909F908F907F906F90C9
:102F500008950F931F93CF93C42F20E030E040EAF1
:102F600051E40E9495390E9444370E94CB378B016F
:102F700001151105D9F08091AC05811117C0C1115F
:102F800003C00E94531F06C00E943B1E8091AE05E5
:102F900081FD0CC02FEF80E792E0215080409040EF
:102FA000E1F700C0000001501109E2CFCF911F915D
:102FB0000F910895009741F0EFE9FFE03197F1F7A5
:102FC00000C000000197F6CF08958F929F92AF92B4
:102FD000BF92CF92DF92EF92FF9269017A019B013B
:102FE000AC010E9495394B015C01A7019601C70114
:102FF000B6010E9495399B01AC01C501B4010E9444
:103000007E36FF90EF90DF90CF90BF90AF909F9073
:103010008F900C94223A4F925F926F927F928F9290
:103020009F92AF92BF92CF92DF92EF92FF920F9357
:103030001F93CF93DF9310911E01111101C012E174
:10304000115000911C01101709F4EFC089E2189F7C
:10305000E0011124C05EDE4F8D889E88AF88B88C59
:1030600069A17AA18BA19CA19B01AC010E947E3633
:103070002DA13EA14FA158A50E9495396B017C015D
:103080009B01AC01B401C5010E94573787FF02C004
:1030900064017501A601B701498B5A8B6B8B7C8B40
:1030A000111101C012E177247A94710E701619F093
:1030B00029E2622E27C080911F01081351C00E948F
:1030C000B02D4EC0679C80011124005E1E4F711010
:1030D00002C092E1792E7A9480911F01781202C089
:1030E0000E94B02DF801C588D688E788F08CA7012A
:1030F000960161897289838994890E945737811169
:1031000006C0E80180911C017812DCCF29C0F801CB
:1031100061A172A183A194A19B01AC010E947E36A2
:10312000F80125A136A147A150A50E94953929890A
:103130003A894B895C890E947E364B015C01A7016C
:1031400096010E945737F80187FF05C0818A928A4D
:10315000A38AB48AD6CFC18AD28AE38AF48AD1CF2D
:1031600060901C01F9E26F9E80011124005E1E4FE9
:1031700077247394760C82E1781201C0712C509000
:103180001E0189E2482E751409F44DC0479CE001E8
:103190001124C05EDE4FF80181889288A388B4882C
:1031A000C988DA88EB88FC88A7019601C501B401BB
:1031B0000E94573787FF23C0F80161A172A183A144
:1031C00094A19B01AC010E947E36F80125A136A195
:1031D00047A150A50E9495399B01AC01C501B401DE
:1031E0000E947E364B015C01A70196010E94573771
:1031F00087FF05C0898A9A8AAB8ABC8A672C2D8989
:103200003E894F89588D69897A898B899C890E946A
:103210005737811101C0672C7394F2E17F1201C00E
:10322000712C8E01B0CF60921C01DF91CF911F9164
:103230000F91FF90EF90DF90CF90BF90AF909F9055
:103240008F907F906F905F904F9008958CE1E0E0B9
:10325000F1E0DF011D928A95E9F710921F011092AB
:103260001E0181E080931D0110921C010895909130
:103270001F0180911E01891769F081E0890F823159
:1032800009F480E020911C01921302C080931C017C
:1032900080931F01089580911E0129E2829FC00141
:1032A0001124805E9E4F089580911F0190911E0110
:1032B000981739F029E2829FC0011124805E9E4F49
:1032C000089580E090E00895E0911F01EF5FE23102
:1032D00009F4E0E080911E01E81761F089E2E89FBF
:1032E000F0011124E05EFE4F61897289838994891F
:1032F0000C94223A60E070E0CB01089581E02091C7
:103300001F0190911D01291380E008952F923F9293
:103310004F925F926F927F928F929F92AF92BF92E5
:10332000CF92DF92EF92FF920F931F93CF93DF9391
:10333000CDB7DEB7E9970FB6F894DEBF0FBECDBFAD
:10334000142F5FA368A779A7922E08AB20911E01C6
:1033500039E2239F10011124F101E05EFE4F1F01AD
:10336000158616861786108A15A216A217A210A611
:10337000108249E956E766E97EE741A352A363A3B9
:1033800074A32CE0002319F0E2EBF5E002C0E0E0CA
:10339000F1E0DE011D9601900D922A95E1F76C0196
:1033A0004EE8E42E46E0F42E9E01275E3F4F3FA7F5
:1033B0002EA7CE010D969DA78CA75101FE01319637
:1033C000FBA7EAA700E0F6016191719181919191CB
:1033D0006F01F70120813181428153810E9495392B
:1033E0000E946539EEA5FFA5619371938193919336
:1033F000FFA7EEA7ECA5FDA54190519061907190BB
:10340000FDA7ECA764197509860997092B013C01F2
:1034100097FF07C0442455243201461A570A680A08
:10342000790AF5014182528263827482F101258515
:10343000368547855089421653066406750610F492
:1034400029013A01F101458656866786708A0E94F5
:10345000F937F70120813181428153810E945E3723
:103460002B013C01EAA5FBA5619371938193919394
:10347000FBA7EAA720E030E0A9010E94573787FFA9
:1034800008C0F1018080802F0E94CF298829F10196
:103490008083A3019201C301B2010E949539F10119
:1034A00025A136A147A150A50E947E36F10165A352
:1034B00076A387A390A70F5FF4E0EF0EF11C24E042
:1034C000A20EB11C033009F07ECF0E94223A6B019C
:1034D0007C01F10165A376A387A390A785859685D6
:1034E000A785B089892B8A2B8B2B09F4F2C120E0A8
:1034F00030E0A901612F7FA188A599A50E945737C7
:1035000087FD21C0992061F0A7019601612F7FA15D
:1035100088A599A50E949539162F7FA388A799A7FA
:1035200020E030E040E85FE3612F7FA188A599A506
:103530000E94573787FF0EC010E01FA280E888A7BF
:103540009FE399A707C019E9F6E7FFA326E928A793
:103550003EE739A7A701960160E070E080E89FE3AD
:103560000E945E376EAB7FAB88AF99AFECE0F1E0C5
:10357000FFA7EEA72AE936E03DA72CA7CE010D96BE
:103580009EA38DA3FE013196FBA7EAA7C12CD12CE7
:103590007601EAA5FBA580809180A280B38020E01F
:1035A00030E0A901C501B4010E945737882309F40E
:1035B00081C02EA93FA948AD59ADC501B4010E94F3
:1035C00095394B015C01EAA5FBA560837183828379
:1035D00093839B01AC0160E070E080E89FE30E9470
:1035E0005E372B013C01E89477F8ECA5FDA520811E
:1035F000318142815381C301B2010E94953969AB87
:103600007AAB8BAB9CAB9B01AC01612F7FA188A5F2
:1036100099A50E94573787FF07C019ABFFA1FAABE6
:1036200028A52BAB39A53CABF101F1A1FFA3F1011A
:10363000F2A1F8A7F101F3A1F9A7F101F4A1FDAB03
:10364000ECA5FDA52485358546855785C301B201C6
:103650000E9495393B018C019B01AC016FA178A5BB
:1036600089A59DA90E94573787FF04C06FA078A441
:1036700009A51DA9C301D801F10181A392A3A3A3A8
:10368000B4A3EEA5FFA52081318142815381C501FC
:10369000B4010E9495399B01AC01C701B6010E949B
:1036A0007D366B017C0119A9FAA9FFA32BA928A7D4
:1036B0003CA939A78AA59BA504969BA78AA7EEA536
:1036C000FFA53496FFA7EEA72CA53DA52C5F3F4F85
:1036D0003DA72CA7EDA1FEA18E179F0709F059CF9A
:1036E00090911E0180911F01981719F0F8A9FF23EE
:1036F00031F0F101118A128A138A148A0BC024EA6C
:1037000030E74DE75FE3C701B6010E945A3918164A
:1037100034F4F101118E128E138E148E5FC024EAE0
:1037200030E74DE75FEBC701B6010E945A39181622
:1037300044F034EAC32E30E7D32E3DE7E32E3FEBCF
:10374000F32EA701960160E070E080E89FE30E94FD
:103750007D3620E030E040E05FE30E9495390E9432
:10376000223A6B017C012091C3063091C40640913E
:10377000C5065091C606F10161A172A183A194A171
:103780000E949539A70196010E9495394B015C0171
:10379000A701960160E070E080E89FE30E947D361B
:1037A0009B01AC01C501B4010E945E37D62EE72E05
:1037B000F82E092F20E030E0A9010E94573787FF3B
:1037C00004C0D12CE12CF12C00E04D2D5E2D6F2D8D
:1037D000702FF101418F528F638F748F212F3FA182
:1037E00048A559A5612F7FA188A599A50E94953963
:1037F000162F072FF82EE92E862F902FAF2DBE2DD6
:10380000F101858F968FA78FB0A3A18CB28CC38C4A
:10381000D48C609018017090190180901A019090DA
:103820001B019301A401612F702F8F2D9E2D0E94EB
:10383000573787FD0BC09301A401B501C6010E9453
:10384000573787FD11C0530164010EC0212F302F5F
:103850004F2D5E2DB501C6010E94573787FD04C06C
:10386000A12EB02ECF2CDE2CC501D601F101858B07
:10387000968BA78BB08FF8A9F1112DC08CE0FE01BB
:103880003196ACE0B1E001900D928A95E1F7812F7D
:10389000902FAF2DBE2D8093180190931901A09306
:1038A0001A01B0931B018CE0FE017996A0E0B1E013
:1038B00001900D928A95E1F780911D0180931E0180
:1038C0008F5F823109F480E080931D010E940B1804
:1038D00002C080E001C081E0E9960FB6F894DEBF37
:1038E0000FBECDBFDF91CF911F910F91FF90EF9051
:1038F000DF90CF90BF90AF909F908F907F906F9010
:103900005F904F903F902F9008958091B2059091D5
:10391000B305A091B405B091B505809300019093D3
:103920000101A0930201B09303018091B60590912B
:10393000B705A091B805B091B905809304019093A3
:103940000501A0930601B09307018091BA059091FB
:10395000BB05A091BC05B091BD0580930801909373
:103960000901A0930A01B0930B01089580911E01F3
:1039700090911F01891708F48E5E891B08950E949B
:10398000B02D80911F0180931C010C940B18CF93D4
:10399000DF93EC018991882319F00E942626FACF43
:1039A000DF91CF910895CF93DF93FC018491EF01D4
:1039B0002196882321F00E942626FE01F7CFDF9171
:1039C000CF910895EF92FF920F931F93CF93DF93C0
:1039D0001F92CDB7DEB7262FEDB6FEB66DB77EB718
:1039E000641B71090FB6F8947EBF0FBE6DBF0DB793
:1039F0001EB70F5F1F4F302FF8019E2F931B941798
:103A000028F4622F0E94823A9193F7CF442361F009
:103A1000F801E40FF11D31978081805D49830E9498
:103A2000262649814150F2CF0FB6F894FEBE0FBE54
:103A3000EDBE0F90DF91CF911F910F91FF90EF900E
:103A4000089548E062E00C94E21C8A3020F084364D
:103A500020F442E003C041E001C043E06AE00C947E
:103A6000E21C8F929F92AF92BF92CF92DF92EF9221
:103A7000FF920F931F93CF93DF93CDB7DEB72A97B3
:103A80000FB6F894DEBF0FBECDBF6B017C01142FC3
:103A900020E030E0A9010E94573787FF07C08DE280
:103AA0000E942626F7FAF094F7F8F094012F0230DE
:103AB00060F020E030E048EC52E4C701B6010E941B
:103AC00095396B017C010250F2CF10FF0AC020E053
:103AD00030E040E251E4C701B6010E9495396B0124
:103AE0007C0120E030E040E05FE3C701B6010E94C6
:103AF0007E360E94C637E1E0F0E0EC0FFD1FE10FDB
:103B0000F11D2EE22083D12C5AE0852E912CA12C80
:103B1000B12C6115710581059105A9F0D11201C083
:103B2000D394EE24E394F12CEC0EFD1EED0CF11C6D
:103B3000A50194010E948E3A605DF7016083B9018E
:103B4000CA01D394E6CF80E3D11648F4E1E0F0E077
:103B5000EC0FFD1FED0DF11D8083D394F5CF8D2D5E
:103B6000D1120BC0D394D3948F5FE1E0F0E0EC0F5F
:103B7000FD1FE80FF11D80E38083DD2041F0FE0191
:103B8000ED0DF11D80810E942626DA94F6CF2A964B
:103B90000FB6F894DEBF0FBECDBFDF91CF911F915E
:103BA0000F91FF90EF90DF90CF90BF90AF909F90DC
:103BB0008F9008952091D30620FF08C02BE832E4AF
:103BC00041E25DE30E94953944E001C043E00C947A
:103BD000311D2091D30620FF08C02BE832E441E2DA
:103BE0005DE30E94953941E001C040E00C94311D35
:103BF00043E00C94311D40E00C94311D3D98459AF2
:103C000008951092CD059091D30697FD03C090E2E0
:103C10009093CD05882331F08091CD0590E28927DE
:103C20008093CD05089586B180729091CD05892746
:103C300008958091BF058130A1F40E94131E88234E
:103C400081F01092BF058CE0E2EBF5E0A0ECB5E06E
:103C500001900D928A95E1F78091B0058064809380
:103C6000B00508959FB7F894E0EBF5E0808182609D
:103C700080839FBF0895CF93DF93C091B105CC237C
:103C800081F181E08093AD05C1FD0FC0C2FF02C08C
:103C900082E00BC0C3FF02C083E007C0C4FF02C0C4
:103CA00084E003C0C5FF03C085E00E946C21C0FD15
:103CB00008C08FB7F8949091B1051092B1058FBFED
:103CC00010C081E00E9496219FB7F8948091B005C2
:103CD0008F7E8093B0059FBF8091B00584FFFCCF9D
:103CE000E8CFC091B005CC2309F4D2C0C4FF04C012
:103CF00081E08093AC05D4C0C0FF0AC00E94E924D3
:103D00009FB7F8948091B0058E7F8093B0059FBFD8
:103D1000DC2FD87609F45CC08091AD05882359F07A
:103D2000982F9C7709F44CC0883029F40E94B02D5C
:103D300084E08093AF058091AD05811106C091E0CC
:103D40009093AE0592E09093AF05C6FF0AC088300D
:103D500019F480E48093AD058091AE058064809372
:103D6000AE05C3FF07C08091AD05803219F080E138
:103D70008093AD05C5FF24C086E00E949621809106
:103D8000AE0588728832A1F48091AF0583FF0AC026
:103D90000E94B02D8CE08093AF058091AE058E7FA0
:103DA0008093AE058091AE05837E82608093AE05E0
:103DB0008091AE0580628093AE0580E28093AD0570
:103DC0009FB7F8948091B00587798093B0059FBF25
:103DD000C1FF3DC0D11133C08091AD05882331F0C2
:103DE000807569F18091AE0580FF29C08091AE0594
:103DF000982F9472943239F484FD02C0886001C017
:103E00008F7D8093AE058091AE0585FD18C0109220
:103E1000AF050E945419892B71F08091AE0586FD83
:103E20000AC01092AE0588E08093AD050E94712E05
:103E30000E94B02A04C01092AE051092AD059FB743
:103E4000F8948091B0058D7F8093B0059FBFC2FF2D
:103E50001FC08091AD05807379F00E94BF1C9091C6
:103E6000AF0592FF05C08091AE0581608093AE05DD
:103E7000937F9093AF0504C01092AE051092AD05EC
:103E80009FB7F8948091B0058B7F8093B0059FBF5A
:103E90008091AD058C7721F0DF91CF910C94712E3C
:103EA000DF91CF9108958F929F92AF92BF92CF9260
:103EB000DF92EF92FF920F931F93CF93DF93CDB7D3
:103EC000DEB768970FB6F894DEBF0FBECDBF0E9475
:103ED0003B1E8091AE05882309F40BC1C12CD12C67
:103EE00090EAE92E90E4F92E10E10CE08091AE0505
:103EF000882309F4FEC09091AC059111FAC0982F67
:103F00009172913209F0F2C082FD7DC062EB75E0E2
:103F1000CE0101960E9463368091AE0581FD21C0DD
:103F2000FE013196DE011D96802F01900D928A953B
:103F3000E1F72D893E894F89588DC701B6010E944E
:103F40007E366B017C0120E030E040EA50EC0E94BC
:103F5000573787FD06C0C12CD12C80EAE82E80ECB3
:103F6000F82E8091D30684FF43C089849A84AB8461
:103F7000BC8420E030E040EA50ECC501B4010E946E
:103F8000573787FF35C0A7019601C501B4010E94CC
:103F9000573787FF0CC0C986DA86EB86FC8640E07F
:103FA00050E06AE773E4CE0101960E949F160E94DA
:103FB000E3290E94580420E030E040EA50EC698593
:103FC0007A858B859C850E94573787FF15C080E0D6
:103FD00090E0A0EAB0EC89879A87AB87BC8740E085
:103FE00050E060E87FEBCE0101960E949F1604C06E
:103FF0000E94E3290E9458048091AE058D7F846061
:104000008093AE0573C08091AD05803231F40E947B
:104010009D34811102C01093AD058091AE0583FFE0
:1040200065C08091D30684FF18C020E030E040EAEC
:1040300050EC69857A858B859C850E9457371816C8
:1040400064F0C986DA86EB86FC8640E050E060E8E2
:104050007FEBCE0101960E949F1680913D0588233B
:10406000A9F09091AE0591FD11C040913E0550918F
:104070003F0560914005709141050E94F32941E0A0
:1040800060E070E080E89FE30E94A91780913C0502
:10409000882369F09091AE0591FD09C00E945F04EC
:1040A00041E060E070E080E89FE30E94A917809102
:1040B000D30684FF0CC08091AE0581FD08C040E0AE
:1040C00050E06AE773E4CE010D960E949F1680913E
:1040D000AE0581FD0BC080618093AE059FB7F8945B
:1040E0008091B00582608093B0059FBF0E943B1E07
:1040F000FDCE68960FB6F894DEBF0FBECDBFDF9140
:10410000CF911F910F91FF90EF90DF90CF90BF90D4
:10411000AF909F908F900895CF93DF930E94C52119
:104120008091AD05813021F482E00E94962130C05B
:104130001092AD050E949D34882339F08091B0051E
:1041400080628093B0050E94531F82E094E00E9439
:10415000A3341EC08D3061F0CC2399F1893209F46B
:10416000CD7F0E946C268F3F09F448C08A3091F7BA
:104170000E94531F8091AC05811149C0ED2FF0E0E2
:10418000EE5FFB4F1082C0FF06C08BE00E941B2138
:10419000D0E0C0E0E6CF809102048823B9F38432F6
:1041A00029F482E094E00E94C234F0CF8091AD0502
:1041B000813011F489E0EACF82E094E00E94490561
:1041C000E5CF813270F28F3261F2883289F08B3321
:1041D00089F0DF3488F42D2F30E0DF5F9FE9980FFE
:1041E000F901EE5FFB4F9A3108F480528083B9CF1A
:1041F000C2E0B7CFC4E0B5CFC1E0B3CF0E94321E5A
:104200000E94531F8091AC05882309F4AACFDF9147
:10421000CF9108950E94321E0E94531F8091AC05D9
:10422000811108C00E945419892BB1F78091AD0506
:10423000883091F30895CF93C82F811103C083E88C
:1042400098E047C08BE798E00E94D31C4C2F50E0C9
:10425000FA013197E631F10598F5E75AFF4F0C94D2
:10426000B03A83E698E002C081E598E00E94D31C52
:104270002EC08FE398E0FACF85E398E0F7CF84E291
:1042800098E0F4CF85E198E0F1CF84EF97E0EECFAE
:104290008BEE97E0EBCF80EE97E0E8CF8DEC97E0E8
:1042A000E5CF8FEB97E0E2CF84EB97E0DFCF8EE9AD
:1042B00097E0DCCF8AE897E0D9CF86E797E0D6CFC2
:1042C00084E697E00E94D31C8C2F0E94251D81E676
:1042D00097E0CF910C94D31CCF93C82F89E597E03A
:1042E0000E94D31CC33091F03CF4C13061F0C23065
:1042F000A1F483E497E00FC0C43059F0C53069F4ED
:1043000089E197E008C08EE497E005C080E397E07C
:1043100002C085E297E00E94D31C86E197E00E94EC
:10432000D31C84EF91E0CF910C94DA17CF93C82F70
:1043300084E197E00E94D31C8C2F90E0FC01319720
:10434000E830F105E8F4E159FF4F0C94B03A82E00F
:1043500097E014C08EEE96E011C08CED96E00EC092
:1043600084ED96E00BC08BEC96E008C080EC96E004
:1043700005C088EB96E002C085EA96E00E94D31C57
:1043800081EA96E0CF910C94D31C84E896E00C94DB
:10439000D31C80E495E00C94D31CFF920F931F93E1
:1043A000CF93DF938CE395E00E94D31C8091BE06EF
:1043B0000E94251D83E295E00E94D31C8091C106D6
:1043C0000E94251D85E095E00E94D31C8091BF06C8
:1043D0000E94251D8CEE94E00E94D31C8091BF06A4
:1043E0000E94211D85EE94E00E94D31C8091C0069E
:1043F0000E94251D8DEC94E00E94D31C8091C00684
:104400000E94211D86EC94E00E94D31C8091D3066B
:1044100082FB882780F90E94251D85EA94E00E948E
:10442000D31C8091D30686FB882780F90E94251D26
:1044300085E894E00E94D31C8091D306881F8827CA
:10444000881F0E94251D85E694E00E94D31C809160
:10445000C2060E94251D8FE494E00E94D31C809127
:10446000C2060E94211D87E494E00E94D31C609143
:10447000C3067091C4068091C5069091C6060E943D
:10448000F81D87E294E00E94D31C6091C7067091EA
:10449000C8068091C9069091CA060E94F81D8CE05A
:1044A00094E00E94D31C8091D30681700E94251D48
:1044B0008FEE93E00E94D31C8091D30685FB882762
:1044C00080F90E94251D84ED93E00E94D31C809109
:1044D000D30683FB882780F90E94251D89EB93E092
:1044E0000E94D31C8091D306829581700E94251D65
:1044F0008DE993E00E94D31C8091D4060E94251D73
:1045000083E893E00E94D31C8091D4060E94211D71
:104510008BE793E00E94D31C6091D5067091D6067C
:104520008091D7069091D8060E94F81D8EE593E001
:104530000E94D31C6091D9067091DA068091DB0647
:104540009091DC060E94F81D81E493E00E94D31C48
:104550008091DD060E94251D82E293E00E94D31C1B
:104560006091DF067091E0068091E1069091E2068D
:104570000E94F81D85E093E00E94D31C6091CB0659
:104580007091CC068091CD069091CE060E94FB1DC5
:1045900084EF92E00E94D31C6091CF067091D00608
:1045A0008091D1069091D2060E94FB1D87EE92E089
:1045B0000E94D31C84E6F82E10E0CEE8D6E000E09E
:1045C00085EE92E00E94D31C802F8F0D0E94251D46
:1045D00083EE92E00E94D31C123071F01330B9F0D8
:1045E000113029F0688179818A819B8117C06C859F
:1045F0007D858E859F8512C020E030E041E655E440
:10460000688D798D8A8D9B8D0E945E3707C08CA145
:104610009DA1AEA1BFA1BC01CD0190580E94F81D83
:1046200080EE92E00E94D31C013029F0023031F07C
:104630008EED92E005C08CED92E002C08AED92E032
:104640000E94D31C123051F0133059F0113019F080
:1046500080ED92E008C08EEB92E005C08DEA92E01A
:1046600002C08DE992E00E94D31C89E992E00E9489
:10467000D31C0F5F2496033009F0A2CF8AE0F80E16
:104680001F5F8CE8F81299CFDF91CF911F910F91A6
:10469000FF900895CF9383E992E00E94D31CC0E07D
:1046A0006C2F80EC95E00E9449360E94DA1DC230E2
:1046B00021F081E992E00E94D31CCF5FC33081F7E3
:1046C0008FE892E00E94D31C8091CC050E94251DAA
:1046D0008BE892E0CF910C94D31CEF92FF920F9352
:1046E0001F93CF93DF93CDB7DEB72C970FB6F89417
:1046F000DEBF0FBECDBFF12CBE016F5F7F4F8F2D90
:104700000E946B28811104C087E00E941B2169C0B0
:1047100088E892E00E94D31C86E0F81631F0E7E0CA
:10472000FE1208C082E892E002C085E892E00E9492
:10473000D31C04C086E38F0D0E94251D80E892E003
:104740000E94D31C8E010F5F1F4FE12CF801619175
:104750007191819191918F010E94DA1DF2E0EF1623
:1047600019F08EE792E002C08AE792E00E94D31C23
:10477000E39483E0E812EACFF394E8E0FE12BCCFC2
:1047800084E792E00E94D31C03E615E0F12CF801C7
:1047900061917191819191918F010E94DA1DF2E0F6
:1047A000FF1619F082E792E002C08EE692E00E94C6
:1047B000D31CF39483E0F812EACF88E692E00E94DB
:1047C000D31C60916F057091700580917105909177
:1047D00072050E94DA1D84E692E00E94D31C0E94BA
:1047E0004A232C960FB6F894DEBF0FBECDBFDF91E3
:1047F000CF911F910F91FF90EF90089582E692E084
:104800000E94D31C80913405823091F038F48823C3
:1048100061F08130A9F48CE592E00CC0833069F03E
:10482000883071F482E592E005C08FE592E002C025
:1048300089E592E00E94D31C0CC086E592E0FACF95
:104840008DE492E00E94D31C8091340586500E9432
:10485000251D8AE492E00E94D31C80913A058A5C6F
:104860000E94251D80913805813049F028F0823062
:1048700051F48BE392E005C085E492E002C080E44D
:1048800092E00E94D31C80913605811103C086E31B
:1048900092E002C081E392E00E94D31C8091370530
:1048A000811103C08CE292E002C087E292E00E9494
:1048B000D31C80913505813019F482E292E002C068
:1048C0008DE192E00E94D31C80913B05813049F03C
:1048D00028F0823051F481E192E005C089E192E054
:1048E00002C085E192E00E94D31C80913D05813099
:1048F00031F040F0823051F489E092E005C08DE063
:1049000092E002C085E092E00E94D31C80913C05B9
:10491000813049F028F0823051F48DEF91E005C0EC
:1049200081E092E002C089EF91E00E94D31C86EF03
:1049300091E00E94D31C809146050E94251D83EFC3
:1049400091E00E94D31C60914205709143058091D3
:104950004405909145050E94E91D80EF91E00E9479
:10496000D31C60913E0570913F0580914005909168
:1049700041050E94FB1D8CEE91E00C94D31C1F930B
:10498000CF93DF93182FEB0189EE91E00E94D31CA7
:10499000812F0E94251D87EE91E00E94D31CCE013D
:1049A0000E94C71C84EE91E0DF91CF911F910C947F
:1049B000D31CCF93DF93EC0184ED91E00E94D31CD4
:1049C000CE010E94C71C80ED91E0DF91CF910C9445
:1049D000D31CBF92CF92DF92EF92FF920F931F935F
:1049E000CF93DF93CDB7DEB768970FB6F894DEBFED
:1049F0000FBECDBF8CE0E2EBF5E0DE011D9601902D
:104A00000D928A95E1F78091AD058430E9F040F48C
:104A10008130E9F080F0823009F58BEA91E01CC02A
:104A2000803179F018F4883049F018C0803291F064
:104A3000803421F013C08AEC91E00EC085EC91E047
:104A40000BC08FEB91E008C089EB91E005C082EBD1
:104A500091E002C085EA91E00E94D31C8091C206D9
:104A6000837039F0BE01635F7F4FCE0101960E94D3
:104A700063368091C20680FD05C08091C20681FF29
:104A80006DC01FC08EE991E00E94D31C69817A81BC
:104A90008B819C810E94DA1D8CE991E00E94D31CDD
:104AA0006D817E818F8198850E94DA1D8CE991E06D
:104AB0000E94D31C69857A858B859C850E94DA1DAE
:104AC000DCCF85E991E00E94D31C97E5E92E95E0C3
:104AD000F92E8E010F5F1F4FB12C6801F701619114
:104AE0007191819191917F01208531854285538516
:104AF0000E947E369B01AC01F80160817181828148
:104B000093810E947D36F801608371838283938351
:104B1000F2E0BF120FC020916F05309170054091F7
:104B20007105509172050E947D36F8016083718392
:104B3000828393830C5F1F4FF601608171818281B4
:104B400093810E94DA1DF2E0BF1621F083E991E023
:104B50000E94D31CB39423E0B212BFCF8091C2064F
:104B600082FF08C08DE891E00E94D31C0E94B61C11
:104B70000E94251D8091C20683FF08C088E891E04D
:104B80000E94D31C0E9407260E94251D8091C20608
:104B900084FF29C082E891E00E94D31C0E94A50FE7
:104BA00043E062E00E94E21C80E891E00E94D31C96
:104BB00086B141E062E085FB882780F90E94E21C13
:104BC0008EE791E00E94D31C36B186B126B196B132
:104BD00084703270832B2270822B917044E062E0EB
:104BE000892B0E94E21C8AE791E00E94D31C689600
:104BF0000FB6F894DEBF0FBECDBFDF91CF911F91EE
:104C00000F91FF90EF90DF90CF90BF90089590911B
:104C1000540480915504891708F48058891B08951D
:104C2000E0ECF0E08081826080831092C50080E13A
:104C30008093C400E1ECF0E080818061808380811A
:104C4000886080838081806880830895E091530428
:104C500091E09E0F903409F490E020915204921359
:104C600005C02091B00524FFF8CF0895F0E0E2538D
:104C7000FA4F8083909353048091C10080628093A7
:104C8000C10008951F920F920FB60F9211248F93B7
:104C90009F93EF93FF9380915204E82FF0E0E2534B
:104CA000FA4F90819093C6008F5F803409F480E0C2
:104CB0008093520490915304891305C08091C100E0
:104CC0008F7D8093C100FF91EF919F918F910F9005
:104CD0000FBE0F901F901895909154048091550429
:104CE000891761F0E92FF0E0E25FF94F80819F5F63
:104CF000903809F490E09093540408958FEF08954C
:104D00001F920F920FB60F9211242F933F934F9340
:104D10005F936F937F938F939F93AF93BF93EF9323
:104D2000FF938091C6008F33A9F050F4883109F1C8
:104D3000813211F59FB7F8948091B005886015C055
:104D4000803471F08E37C1F49FB7F8948091B0052C
:104D500082600BC09FB7F8948091B005816005C058
:104D60009FB7F8948091B00580628093B0059FBF93
:104D700014C00E94CB1611C0E091550491E09E0F23
:104D8000903809F490E020915404921731F0F0E04B
:104D9000E25FF94F808390935504FF91EF91BF91AB
:104DA000AF919F918F917F916F915F914F913F91C3
:104DB0002F910F900FBE0F901F9018958091550462
:104DC00080935404089521E5829FC001112440E599
:104DD00050E09D5F0C94AE0440E550E0BC018EEACB
:104DE00093E00C94AE042DE0829FC00111244CE0AE
:104DF00050E09E5F0C94AE046AE080E090E00E9478
:104E00008C0445E550E06EE876E081E090E00C949B
:104E1000AE04EF92FF920F931F93CF93DF93CDB722
:104E2000DEB72C970FB6F894DEBF0FBECDBF182F9C
:104E300080FFEDC08AE08093BE068FEF8093C106AD
:104E40001092BF0623E02093C0062093C2068AE09A
:104E500097EDA3EABCE38093C3069093C406A093A6
:104E6000C506B093C6068FE692E1A3E0BBE380934C
:104E7000C7069093C806A093C906B093CA0680E0FF
:104E800090E8ABE3B6E48093CB069093CC06A09376
:104E9000CD06B093CE061092CF061092D006109297
:104EA000D1061092D2062093D40680E090E0A8ECC0
:104EB000B1E48093D5069093D606A093D706B0931D
:104EC000D80680E090E8ABE3B4E48093D9069093F1
:104ED000DA06A093DB06B093DC068AEF90E09093AD
:104EE000DE068093DD0680E090E0A0E8BFE38093DB
:104EF000DF069093E006A093E106B093E2061092DD
:104F0000D30640E050E060E272E440938E06509396
:104F10008F0660939006709391064093920650938B
:104F20009306609394067093950685E592EFACE343
:104F3000B3E48093960690939706A0939806B09357
:104F4000990640E050E06AEF75E440939A0650936A
:104F50009B0660939C0670939D0640939E0650931B
:104F60009F066093A0067093A10680E090E0AAEFF0
:104F7000B3E48093A2069093A306A093A406B093F3
:104F8000A50640E05AEB6BED79E44093A6065093FA
:104F9000A7066093A8067093A9064093AA065093AB
:104FA000AB066093AC067093AD0680E098ECAFE280
:104FB000B8E48093AE069093AF06A093B006B0938A
:104FC000B10680E090E0A9E3B4EC8093B206909340
:104FD000B306A093B406B093B50680E090E8A5E4CC
:104FE000B4EC8093B6069093B706A093B806B0933E
:104FF000B90680E090E0A8ECB2EC8093BA069093FA
:10500000BB06A093BC06B093BD060E94FC2611FF10
:1050100010C0CE0101967C018CE0F70111928A95B7
:10502000E9F700E0B701802F0E94F3260F5F0830F8
:10503000C9F712FF0AC060E080E093E00E948C0490
:1050400060E081E593E00E948C0413FF05C060E0FE
:105050008EEA93E00E948C042C960FB6F894DEBF83
:105060000FBECDBFDF91CF911F910F91FF90EF90B9
:1050700008951F93CF93DF93182FEB0181E5189FBD
:10508000B00111247D5F40E550E0CE010E94EC04A8
:10509000892B39F41882BE01812F0E94E32680E01B
:1050A00001C081E0DF91CF911F910895CF93DF93ED
:1050B000EC0140E550E06EEA73E00E94EC04892BBD
:1050C00031F41882CE010E94EC2680E001C081E01C
:1050D000DF91CF9108951F93CF93DF93182FEB01AA
:1050E0008DE0189FB00111247E5F4CE050E0CE01AE
:1050F0000E94EC04892B59F48CE0FE0111928A95F0
:10510000E9F7BE01812F0E94F32680E001C081E013
:10511000DF91CF911F91089580E090E00E94840478
:105120008A3059F445E550E061E070E08EE896E0A1
:105130000E94EC0421E0892B09F420E0822F0895DD
:10514000CF92DF92EF92FF92CF93DF93C82F6A0145
:105150007B0120E030E0A901C701B6010E9457376A
:1051600087FDF8C0C43608F445C02CE92C0F80E058
:105170002330B8F530E0823079F0F901EE0FFF1FEF
:10518000EE0FFF1F833011F1813019F0E257F94F14
:1051900023C0E656F94F20C0E901CC0FDD1FCC0F2C
:1051A000DD1FCA55D94F20E030E040E752E4C70187
:1051B000B6010E94953920E030E040E752E40E94B9
:1051C0009539688379838A839B83C0C0EE54F94FF5
:1051D000F7FAF094F7F8F094C082D182E282F38279
:1051E000B5C08F5F2A3008F4B7C0843009F4B4C06A
:1051F0002A50BECFC701B6010E94633A0E94CB3746
:105200008C2F90E08032910508F0A6C0FC01E9588F
:10521000FF4F0C94B03A633008F4A0C06093BE0610
:1052200095C06093C10692C06093BF0602C06093B0
:10523000C0060E94262D8AC08091D306662311F0F5
:10524000846007C08B7F05C08091D306662321F060
:1052500080648093D3067AC08F7BFBCF8091D30686
:10526000662311F08068F5CF8F77F3CF6093C20685
:105270006DC0C092C306D092C406E092C506F092FB
:10528000C60664C0C092C706D092C806E092C9069E
:10529000F092CA065BC08091D306662311F081604C
:1052A000D8CF8E7FD6CF8091D306662321F084FF9E
:1052B00057C08062CECF8F7DCCCF8091D30666233E
:1052C00011F0886001C0877F8093D3060E948E0F03
:1052D0003DC08091D306662311F08061BACF8F7CE8
:1052E000B8CF6093D40632C0C092D506D092D6060D
:1052F000E092D706F092D80629C0C092D906D09283
:10530000DA06E092DB06F092DC0620C070E07093D3
:10531000DE066093DD061AC0C092DF06D092E0067A
:10532000E092E106F092E20611C0C092CB06D09264
:10533000CC06E092CD06F092CE0608C0C092CF0611
:10534000D092D006E092D106F092D2060E94FC26BE
:1053500080E007C084E005C083E003C086E001C0B0
:105360008AE0DF91CF91FF90EF90DF90CF9008958A
:105370000E948C28811108C087E00E941B218FEFBA
:105380000E9409270C94CD210895882321F08130B3
:1053900021F488E0089584E0089580E10895882349
:1053A00021F0813021F480E4089580E2089580E8BE
:1053B0000895882321F0813021F484E0089582E06B
:1053C000089580E10895E0EBF0E080818F7780839D
:1053D0000895239A83E08093B00082E08093B10027
:1053E000259A0C94E3298F929F92AF92BF92CF920D
:1053F000DF92EF92FF920F931F93CF93DF936A0197
:105400007B019091AC05911176C081110EC0DF91A6
:10541000CF911F910F91FF90EF90DF90CF90BF90B1
:10542000AF909F908F900C94E329813011F42D98C8
:1054300001C02D9AA090CB06B090CC060091CD066D
:105440001091CE068090CF069090D006D091D106D4
:10545000C091D20694014D2F5C2FB501C8010E9466
:10546000573718160CF03FC09501A801B601C701C7
:105470000E945A39181614F46501780194014D2FD1
:105480005C2FB601C7010E94573787FF03C0640134
:10549000ED2EFC2E94014D2F5C2FB601C7010E940A
:1054A0007D366B017C0194014D2F5C2FB501C80145
:1054B0000E947D369B01AC0160E070E08FE793E4D1
:1054C0000E945E379B01AC01C701B6010E9495396D
:1054D00020E030E040E05FE30E947E360E943438F6
:1054E0000E94CB3701C06FEF6093B3008091B00092
:1054F00080688093B000DF91CF911F910F91FF9052
:10550000EF90DF90CF90BF90AF909F908F900895D5
:10551000CF93DF9300D000D01F92CDB7DEB790912C
:10552000AD059230A9F04A835B836C837D838983C8
:105530000E940A214A815B816C817D8189810F9063
:105540000F900F900F900F90DF91CF910C94F32953
:105550000F900F900F900F900F90DF91CF910895C3
:105560008091D30682FF02C0289A01C028988091BA
:1055700093048093A704809194048093A60480915F
:10558000BE06880F845081958093A50480916F009A
:10559000826080936F00089580916F008D7F80936B
:1055A0006F0080918100887F8160809381001092DC
:1055B00092048091C1068F3F21F49091B105992307
:1055C00049F09091AD05943029F090E00E94DA17EF
:1055D00081E001C080E09091D30692FF02C091E08B
:1055E0008927882311F0289A0895289808951F92F2
:1055F0000F920FB60F9211242F933F934F935F9307
:105600006F937F938F939F93AF93BF93CF93DF93CA
:10561000EF93FF93809192048111EFC19BB1809130
:10562000A704807E9F71892B8BB98BB1837E90916B
:10563000A604892B8BB98091A50486BD82E085BD27
:1056400081E08093920478948091B9049091BA0497
:10565000892B09F0A4C08091970490919604981723
:1056600009F492C0E091970486E0E89FF0011124CC
:10567000E554FB4FF093BA04E093B904838194811D
:105680009093890080938800808191819093B504E4
:105690008093B404A2818091B6048A1771F1A0931B
:1056A000B60481E1A89FD0011124A152BB4FB09351
:1056B000B804A093B7041D968D919D910D90BC9157
:1056C000A02DB695A795979587958093A004909364
:1056D000A104A093A204B093A30480939C0490938C
:1056E0009D04A0939E04B0939F048093980490938C
:1056F0009904A0939A04B0939B04C091B704D091ED
:10570000B80480919304988189278093A704258108
:1057100089819A81AB81BC81022E04C0B695A79580
:10572000979587950A94D2F78093A8049093A9043B
:10573000A093AA04B093AB048D819E81AF81B885FC
:10574000022E04C0B695A795979587950A94D2F72F
:105750008093AC049093AD04A093AE04B093AF04D7
:1057600089859A85AB85BC8504C0B695A795979524
:1057700087952A95D2F78093B0049093B104A093B3
:10578000B204B093B3040BC00E94CC2A9FB7F89424
:105790008091B00584608093B0059FBF2EC10E94A8
:1057A000191E1092A6048091A8049091A904A091BA
:1057B000AA04B091AB04409198045091990460916F
:1057C0009A0470919B04840F951FA61FB71F8093A6
:1057D000980490939904A0939A04B0939B04E09149
:1057E000B704F091B80445855685678570894817D8
:1057F00059076A077B0768F524E02093A6044585CE
:10580000568567857089841B950BA60BB70B809313
:10581000980490939904A0939A04B0939B042081D8
:105820008091B2059091B305A091B405B091B505F2
:1058300025FF04C00197A109B10903C00196A11D6C
:10584000B11D8093B2059093B305A093B405B093B6
:10585000B5058091AC049091AD04A091AE04B091D7
:10586000AF0440919C0450919D0460919E047091FE
:105870009F04840F951FA61FB71F80939C049093CD
:105880009D04A0939E04B0939F044585568567852B
:105890007089481759076A077B0778F52091A60495
:1058A00028602093A6044585568567857089841BEA
:1058B000950BA60BB70B80939C0490939D04A0932B
:1058C0009E04B0939F0420818091B6059091B70506
:1058D000A091B805B091B90526FF04C00197A109B0
:1058E000B10903C00196A11DB11D8093B605909327
:1058F000B705A093B805B093B9058091B004909115
:10590000B104A091B204B091B3044091A0045091AD
:10591000A1046091A2047091A304840F951FA61F97
:10592000B71F8093A0049093A104A093A204B09306
:10593000A3044585568567857089481759076A0706
:105940007B0778F52091A60420612093A604458565
:10595000568567857089841B950BA60BB70B8093C2
:10596000A0049093A104A093A204B093A304208167
:105970008091BA059091BB05A091BC05B091BD0581
:1059800027FF04C00197A109B10903C00196A11D19
:10599000B11D8093BA059093BB05A093BC05B0934D
:1059A000BD058091AD05843039F48091BE0590919C
:1059B000A60489238093A6048091B4049091B50431
:1059C00001979093B5048093B404892B69F41092E5
:1059D000BA041092B904809197048F5F8093970462
:1059E000863011F410929704809194049091A6044B
:1059F00089278093A60410929204FF91EF91DF9182
:105A0000CF91BF91AF919F918F917F916F915F9156
:105A10004F913F912F910F900FBE0F901F901895AF
:105A20001F920F920FB60F9211248F939F939BB1E9
:105A3000809194048C71937E892B8BB915BC9F91B6
:105A40008F910F900FBE0F901F901895FF920F939C
:105A50001F93CF93DF931092940410929304C0E0AD
:105A6000D0E00C2F1C2F2091BF0630E08C2F0C2E85
:105A700002C0359527950A94E2F720FF07C0F09001
:105A800094040E94C5298F29809394042091C00614
:105A900030E002C0359527951A95E2F720FF08C03F
:105AA00010919304802F0E94CF29812B809393041F
:105AB0002196C330D105A9F6DF91CF911F910F91A7
:105AC000FF9008950E94CC2A88E3E6E5F4E0DF0128
:105AD0001D928A95E9F783E2E8E9F4E0DF011D927F
